:040000007EEF06F099
:1000080000C016F001C015F039D90050010A09E105
:100018002CD900C05BF10050530A03E1240E816E15
:0E002800F29AF29416C000F015C001F011001B
:0E003600ACB202D00000FCD77EC1ADFF1200BC
:10004400220E0C6E086A096A0A6A0B6A0C06D8B496
:100054001FD0D8900B320A320932083203320232EE
:1000640001320032D8A0F2D70C06D8B409D004501B
:1000740008260550092206500A2207500B22EAD707
:10008400045008260550092206500A2207500B2264
:02009400120058
:100096000D0E01017E6FCCDF0A0E01017E6FC8DFF7
:0200A600120046
:1000A800D00E01017A6F070E7B6F000E7C6F7D6F9B
:1000B800D00E006E070E016E000E026E000E036E6B
:1000C80078C104F079C105F0000E066E076EB6DF40
:1000D80000C07AF101C07BF102C07CF103C07DF160
:1000E800000E035C08E1000E025C05E1020E015CF3
:1000F80002E1940E005C01E231D0940E7A5F020EA8
:100108007B5B000E7C5B7D5B050E006E005007E09C
:100118007D337C337B337A337D9FFF0FF8D77AC1E9
:1001280000F07BC101F07CC102F07DC103F0010E3B
:100138007A5F000E7B5B7C5B7D5B005001100210D8
:1001480003100CE0000000000000000000000000A8
:0E01580000000000000000000000E1D71200CF
:1001660001017B6B78C1E9FF79C1EAFFEECF7AF135
:100176007A51000A0EE07AC17EF15ADF01017B2B2B
:100186007B517825E96E000E7921EA6EEECF7AF181
:04019600EFD712008D
:10019A000B6A0A6A096A00500402F4CF09F0F3CF25
:1001AA0008F001500502F4CF0BF0F3CF0AF000502B
:1001BA000502F3500926F4500A22E86A0B2201507C
:1001CA000402F3500926F4500A22E86A0B2208C0F6
:1001DA0000F009C001F00AC002F00BC003F01200DF
:1001EA0001017851390806E3300E785D03E3010E08
:0801FA00006E01D0006A120042
:0C020200F00E83160101785183121200E7
:10020E000134083609360450085E0550D8A0053C66
:10021E00095E003601360F0E0C6E013408360936B3
:10022E00045000A006D0085E0550D8A0053C095E1B
:10023E0005D008260550D8B0053C092600360136F3
:10024E000C2EEBD700B006D0045008260550D8B0BF
:08025E00053C09260000120016
:0C0266000F0E8316010178518312120064
:10027200AECF01F0ABA202D0AB98AB8801C000F0C8
:02028200120068
:0A028400000E9EBA010E006E12007B
:10028E00300E0101786FE8DF4C0E786F000E796F3B
:10029E0063DFFADE010E3D6E000E3E6E3FC078F15A
:0802AE0040C079F1FADE1200F4
:1002B60012D0006A016A28D0030E006E000E016E8D
:1002C60023D0020E006E000E016E1ED0010E006ECF
:1002D600000E016E19D0000E0101711902E1010E26
:1002E6007019E7E0000E711902E1020E7019E4E0E0
:1002F600000E711902E1030E7019E3E0000E711988
:0A03060002E1040E7019E2E012009B
:10031000090E0101786F75DF410E786F000E796F5D
:1003200022DFB9DE010E01010C6F000E0D6F0AC154
:0A03300078F10BC179F1B8DE12007C
:10033A000C0E0101786F60DFB90E786F000E796FCD
:10034A000DDFA4DE010E01010C6F000E0D6F0AC154
:0A035A0078F10BC179F1A3DE120067
:10036400060E0101786F4BDFF50E786F000E796F82
:10037400F8DE8FDE010E01010C6F000E0D6F0AC155
:0A03840078F10BC179F18EDE120052
:10038E00900E0101786F68DF320E786F000E796F74
:10039E00E3DE7ADE010E3D6E000E3E6E3FC078F15A
:0803AE0040C079F17ADE120073
:1003B6000450000A08E10550000A05E1FF0E006E30
:1003C6007F0E016E57D00D6A096A086A0150001047
:1003D600D8B4000C015005180A6E0ABE0D1E0B6A31
:1003E60005AE05D0041E051E042AD8B4052A01AEA2
:1003F60005D0001E011E002AD8B4012A015005109E
:100406000A6E0ABE10D000DF0BB020D00DAE000C75
:10041600001E011E002AD8B4012A081E091E082A39
:10042600D8B4092A000C05AE0DD001BE07D0015084
:10043600096E0050086E016A006AE8D7016A006A10
:10044600002A000C011E001E0B2ADDD7082AD8B48C
:10045600092A0450085CD8A4D9D70550095CD8A449
:10046600D5D7096A086A002AD8B4012A01AECED7C0
:060476000000FF0C120063
:10047C000101766B776B745342E07451FF0AD8A478
:10048C007407FADE0050000A01E1FBD7ECDE00C075
:10049C0075F1010176517025E16E000E7121E26E4D
:1004AC0000C0E6FF762B77517225E96E000E7321A2
:1004BC00EA6EEE50751902E1772B09D0776B72C199
:1004CC00E9FF73C1EAFFEE507519D8B4772B775159
:1004DC007225E96E000E7321EA6EEE50000A0EE1F1
:1004EC007751765D006E016A000E015A005070253E
:1004FC00E16E01507121E26EE66A06D0BCD770C184
:0A050C00E1FF71C1E2FFE66A120090
:1005160070C1E9FF71C1EAFFEECF72F1000E010171
:10052600736F000E736F000E731902E1200E7219BD
:1005360007E0000E731902E1090E721901E003D0FB
:10054600704B712BE5D7746B756B766B776B000E02
:10055600731902E12D0E721905E1764B772B704B5C
:10056600712B08D0000E731902E12B0E721902E1ED
:10057600704B712B70C1E9FF71C1EAFFEECF72F1CA
:10058600000E736F000E736F72C178F12BDE00528E
:1005960018E074C100F075C101F00A0E046E000E79
:1005A600056EF8DD300E725D026E000E7359036E35
:1005B60002500024746F03500120756F704B712B2D
:1005C600D9D77651771108E074510008006E75C1CD
:1005D60001F0000E015604D074C100F075C101F09F
:0205E600120001
:1005E800600E0101786F3BDEC40E786F000E796FE4
:1005F800B6DD4DDD010E3D6E000E3E6E3FC078F15A
:0806080040C079F14DDD120044
:10061000030E0101786FF5DDDE0E786F000E796F45
:10062000A2DD39DD010E01010C6F000E0D6F0AC154
:0A06300078F10BC179F138DD1200FA
:10063A00C00E0101786F12DECF0E786F000E796F4F
:10064A008DDD24DD010E3D6E000E3E6E3FC078F159
:08065A0040C079F124DD12001B
:100662000900F5CFE6FF0006FBE10106F9E1120001
:10067200620E0101786F000E796F74DD0BDD01DE11
:100682000050010A01E0FBD7290E0101706F010E33
:10069200716F570E726F000E736F0A0E746FEDDE7C
:1006A2005B0E786F000E796F5DDDF4DCEADD0050E1
:1006B200010A01E0FBD71F0E0101706F010E716F7D
:1006C2001E0E726F000E736F0A0E746FD6DE1F0E4F
:1006D200706F010E716F1EDF00C00AF101C00BF1D5
:1006E2000A0E046E000E056E57DD00501A080A6FDE
:1006F20001C00BF1040E0B57170E786F000E796FC5
:1007020031DDC8DCBEDD0050010A01E0FBD7150E69
:100712000101706F010E716F2E0E726F000E736FFA
:100722000A0E746FAADE150E706F010E716FF2DE83
:0A07320000C0F3F001C0F4F0120063
:10073C00360E01015C6F000E5D6F7E0E5E6F010E5A
:10074C005F6F720E646F020E656F000E666F000EA7
:10075C00676F840E606F020E616F000E626F000E89
:10076C00636FFF0E686FFF0E696F000E6A6F000EED
:10077C006B6FAC8A900EAB6E948E949C9EAA03D039
:08078C00AECF00F0FBD7120014
:100794006CC1E9FF6DC1EAFFEE5211E06CC1E9FFE3
:1007A4006DC1EAFF6EC1D9FF6FC1DAFFEE50DE18EA
:1007B40006E101016C4B6D2B6E4B6F2BE9D76CC1BD
:1007C400E9FF6DC1EAFF6EC1D9FF6FC1DAFFDE50E8
:0C07D400EE5C006E016A000E015A12007B
:1007E0000CC170F10DC171F166DD00C00CF101C0EA
:1007F0000DF1F28A00C06CF101C06DF100500001F2
:10080000F32501016E6F01500001F42101016F6FAA
:10081000800E6D19006E800E6F19005C02E16E5142
:100820006C5DD8B061D0040E046E000E056E6CC114
:1008300000F06DC101F0BFDD08C000F009C001F09B
:10084000000E011802E1000E001804E1F2AA02D025
:100850005FDD46D0040E046E000E056E6CC100F024
:100860006DC101F0A8DD08C000F009C001F0000E64
:10087000011802E1010E001804E1F2AA02D05DDDC8
:100880002FD0040E046E000E056E6CC100F06DC119
:1008900001F091DD08C000F009C001F0000E011860
:1008A00002E1020E001804E1F2AA02D05BDD18D0CA
:1008B000040E046E000E056E6CC100F06DC101F0F7
:1008C0007ADD08C000F009C001F0000E011802E155
:1008D000030E001804E1F2AA02D09ADE01D00BD078
:1008E00001016C4B6D2B94D7E90E786F000E796F78
:0808F0003ADC4BEC00F01200B1
:1008F800A40E0101786F000E796F31DC4BEC00F02B
:10090800BDDC0050010A01E0FBD7330E0101706F16
:10091800010E716F980E726F000E736F0A0E746F6E
:10092800A9DD910E786F000E796F19DC4BEC00F0A1
:10093800A5DC0050010A01E0FBD73D0E0101706FF4
:10094800010E716F9C0E726F000E736F0A0E746F3A
:1009580091DD3D0E706F010E716FD9DD00C03FF063
:1009680001C040F00A0E046E000E056E12DC005045
:100978001A083F6E01C040F0040E40560E0E786F04
:10098800010E796FB3EC00F04BEC00F077DC00500F
:10099800010A01E0FBD7510E0101706F010E716F62
:1009A800DA0E726F000E736F0A0E746F63DD510EEC
:1009B800706F010E716FABDD00C022F001C023F033
:0209C80012001B
:1009CA00F28A0CC16CF10DC16DF101010C510001EB
:1009DA00F32501016E6F0D510001F42101016F6FC2
:1009EA00800E6D19006E800E6F19005C02E16E5167
:1009FA006C5DD8B061D0040E046E000E056E6CC139
:100A0A0000F06DC101F0D2DC08C000F009C001F0AD
:100A1A00000E011802E1000E001804E1F2AA02D049
:100A2A00F2DD46D0040E046E000E056E6CC100F0B5
:100A3A006DC101F0BBDC08C000F009C001F0000E76
:100A4A00011802E1010E001804E1F2AA02D085DCC5
:100A5A002FD0040E046E000E056E6CC100F06DC13D
:100A6A0001F0A4DC08C000F009C001F0000E011872
:100A7A0002E1020E001804E1F2AA02D059DC18D0F1
:100A8A00040E046E000E056E6CC100F06DC101F01B
:100A9A008DDC08C000F009C001F0000E011802E167
:100AAA00030E001804E1F2AA02D02DDC01D00CD00A
:100ABA0001016C4B6D2B94D7000E786F010E796F84
:0A0ACA00B3EC00F04BEC00F012005A
:100AD400F28A3DC06CF13EC06DF13D50222401010B
:100AE4006E6F3E5023206F6F800E6D19006E800E66
:100AF4006F19005C02E16E516C5DD8B063D0040ED6
:100B0400046E000E056E6CC100F06DC101F051DC85
:100B140008C000F009C001F0000E011802E1000E47
:100B2400001805E1F2AA03D047EC01F047D0040E07
:100B3400046E000E056E6CC100F06DC101F039DC6D
:100B440008C000F009C001F0000E011802E1010E16
:100B5400001804E1F2AA02D045DD30D0040E046E80
:100B6400000E056E6CC100F06DC101F022DC08C0FE
:100B740000F009C001F0000E011802E1020E001895
:100B840004E1F2AA02D057DD19D0040E046E000E5F
:100B9400056E6CC100F06DC101F00BDC08C000F003
:100BA40009C001F0000E011802E1030E001805E16E
:100BB400F2AA03D0C7EC01F001D00CD001016C4BB8
:100BC4006D2B92D7AF0E786F000E796FB3EC00F0F7
:060BD4004BEC00F01200E2
:100BDA003DC070F13EC071F15BEC01F000C03DF028
:100BEA0001C03EF0F28A00C06CF101C06DF1005004
:100BFA00222401016E6F015023206F6F800E6D1940
:100C0A00006E800E6F19005C02E16E516C5DD8B007
:100C1A0067D0040E046E000E056E6CC100F06DC143
:100C2A0001F0DBEC01F008C000F009C001F0000E91
:100C3A00011802E1000E001805E1F2AA03D0C7EC80
:100C4A0001F04AD0040E046E000E056E6CC100F06D
:100C5A006DC101F0DBEC01F008C000F009C001F041
:100C6A00000E011802E1010E001804E1F2AA02D0F6
:100C7A00DFDC32D0040E046E000E056E6CC100F08B
:100C8A006DC101F0DBEC01F008C000F009C001F011
:100C9A00000E011802E1020E001804E1F2AA02D0C5
:100CAA009EDC1AD0040E046E000E056E6CC100F0B4
:100CBA006DC101F0DBEC01F008C000F009C001F0E1
:100CCA00000E011802E1030E001805E1F2AA03D092
:100CDA0047EC01F001D00CD001016C4B6D2B8ED783
:100CEA00240E786F000E796FB3EC00F04BEC00F035
:020CFA001200E6
:100CFC00B2EC07F0956A836A936A240E816E830EB8
:100D0C00D56E2C0ED66ECF0ED76EF28EF29C330EA5
:100D1C00AF6EAC840DDD820E0C6EDD0E0D6E0D2EE5
:100D2C00FED70C2EFCD70000000042EC01F0005066
:100D3C00010A01E0FAD70101470E706F010E716FC5
:100D4C00A00E726F000E736F0A0E746F3EEC02F001
:100D5C00470E6C6F010E6D6F780E6E6F000E6F6F1D
:100D6C0013DD000E011802E1000E00182AE1819437
:100D7C007ADC290E6C6F010E6D6F7F0E6E6F000E9C
:100D8C006F6F02DD000E011802E1000E001804E185
:100D9C00818015DE819013D0290E01016C6F010E3C
:100DAC006D6F6D0E6E6F000E6F6FEEDC000E011826
:100DBC0002E1000E001803E181820CDD8192F29AAF
:100DCC004AD0470E01016C6F010E6D6F710E6E6F84
:100DDC00000E6F6FD9DC000E011802E1000E001836
:100DEC002AE1819A83DD330E6C6F010E6D6F8E0ECE
:100DFC006E6F000E6F6FC8DC000E011802E1000E62
:100E0C00001804E1818660DE819613D0290E010161
:100E1C006C6F010E6D6F820E6E6F000E6F6FB4DC17
:100E2C00000E011802E1000E001803E18188CFDEEC
:100E3C008198F29A10D0470E01016C6F010E6D6F04
:100E4C00860E6E6F000E6F6F9FDC000E011802E1B4
:0A0E5C00000E001800E169D7FFD76F
:100F640010EE17F0FE0E006E010E016E660EF66EA8
:0E0F74000E0EF76E000EF86E31EC03F0120058
:070E66005374657073310045
:040E6D00216F6B0086
:020E710000007F
:0A0E730046696E6973686564320019
:040E7D00216F6B0076
:0B0E8100496E6372656D656E7432008F
:020E8C00000064
:020E8E00000062
:0B0E9000496E6372656D656E74310081
:0B0E9B00496E6372656D656E74320075
:040EA600216F6B004D
:070EAA00537065656431001F
:0B0EB100446972656374696F6E310064
:040EBC004343570055
:070EC00053746172743200EB
:070EC70053746172743100E5
:030ECE0043570087
:040ED1004343570040
:080ED5005374617274313200A4
:030EDD0043570078
:070EE00053706565643200E8
:040EE700216F6B000C
:040EEB00216F6B0008
:040EEF00216F6B0004
:0B0EF300446972656374696F6E320021
:0A0EFE0046696E697368656432008E
:0B0F0800496E6372656D656E74310008
:0B0F1300496E6372656D656E743200FC
:0B0F1E00496E6372656D656E743200F1
:040F2900216F6B00C9
:0B0F2D00496E6372656D656E743100E3
:0A0F380046696E6973686564310054
:020F42000000AD
:0B0F4400496E6372656D656E743100CC
:0A0F4F0046696E697368656431003D
:020F5900000096
:020F5B00000094
:070F5D00537465707332004C
:020000040030CA
:0D000100220F0EFF0181FF0FC00FE00F4026
:00000001FF
